:100000000C94A4170C94B6170C94B6170C94B6174E
:100010000C94B6170C94B6170C94B6170C94B6172C
:100020000C94B6170C94B6170C94B6170C94B6171C
:100030000C94B6170C94B6170C94B6170C94B6170C
:100040000C94B6170C94B6170C94B6170C94B617FC
:100050000C94B6170C94B6170C94B6170C94B617EC
:100060000C94B6170C94B61707F8FFFF03F8FFFFC0
:10007000FFFFFFFF31FEFF3FFEFFFFE0FFFFFFFF3F
:10008000FFFFFFFFFFFFFFFFFFFFFF1FFEFFFFFF61
:10009000FFC7FFFFFFFFFF8FFFFFC0FFFFFFFF0056
:1000A000FFFFFFFFFFFF19FFFF8FFFFF1FFCFFFF99
:1000B000FFFFFFFFFFFFFFFFFFFFFFFFFF7FF8FFD7
:1000C000FFFFFF8FFFFFFFFFFF1FFFFFFCFFFFFF93
:1000D000FF1FF8FFFFFFFFFF99FFFFC7FFFF83FF31
:1000E000FFFFFFFFFFFFFFFFFFFFFFFFFFFFFFFF20
:1000F000E1FFFFFFFF1FFFFFFFFFFF3FFFFFFFFFCE
:10010000FFFFFFFFC0FFFFFFFFFF88FFFFE3FF7F51
:10011000D0FFFFFFFFFFFFFFFFFFFFFFFFFFFFFF1E
:10012000FFFF87FFFFFFFF3FFEFFFFFFFF3FFEFFD9
:10013000FFFFFFFFFFFF0FFEFFFFFFFFC4FFFFF109
:10014000FF1FC4FFFFFFFFFFFFFFFFFFFFFFFFFFDA
:10015000FFFFFFFF1FFEFFFFFF7FFCFFFFFFFF7F93
:10016000FEFFFFFFFFFFFFFF7FF0FFFFFFFFE4FF4A
:10017000FFF8FF83E7FFFFFFFFFFFFFFFFFFFFFF2A
:10018000FFFFFFFFFFFF7FF8FFFFFFFFF8FFFFFF0D
:10019000FF7FFCFFFFFFFFFFFFFFFF81FFFFFF7FF0
:1001A000F2FF7FFCFFE0E3FFFFFFFFFFFFFFFFFF2A
:1001B000FFFFFFFFFFFFFFFFFFE1FFFFFFFFF1FF7B
:1001C000FFFFFFFFFCFFFFFFFFFFFFFFFF0FFEFF33
:1001D000FF7FF2FF3FFE1FFCF3FFFFFFFFFFFFFF6C
:1001E000FFFFFFFFFFFFFFFFFFFFFFC7FFFFFFFF57
:1001F000E3FFFFFFFFFFF8FFFFFFFFFFFFFFFF7FB2
:10020000F8FFFF7FF9FF1FFF07FFF1FFFFFFFFFF71
:10021000FFFFFFFFFFFFFFFFFFFFFFFFFF0FFFFFDE
:10022000FFFFC7FFFFFFFFFFF9FFFFFFFFFFFFFF1C
:10023000FFFFC1FFFF3FFDFF8FFFE1FFF9FFFFFF62
:10024000FFFFF7FFFFFFFFFFFFFFFFFFFFFFFF3F86
:10025000FCFFFFFF8FFFFFFFFFFFF1FFFFFFFFFF2F
:10026000FFFFFFFF0FFFFF3FFCFFC73FF8FFF8FF57
:10027000FFFFFFFFF7FFFFFFFFFFFFFFFFFFFFFF96
:10028000FFFFF8FFFFFF1FFFFFFFFFFFF3FFFFFF71
:10029000FFFFFFFFFFFF3FFCFF3FFEFFE70FFE7F7B
:1002A000FCFFFFFFFFFFF7FFFFFFFFFFFFFFFFFF69
:1002B000FFFFFFFFE1FFFFFF3FFEFFFFFFFFE3FF49
:1002C000FFFFFFFFFFFFFFFFFFF0FF07FEFFE3C39E
:1002D000FF7FFCFFFFFFFFFFF7FFFFFFFFFFFFFFB9
:1002E000FFFFFFFFFFFFC7FFFFFF7FFCFFFFFFFFD9
:1002F000E7FFFEFFFFFFFFFFFFFFFFC3FF03FFFF5F
:10030000F1F0FF3FFEFFFFFFFFFFF7FFFFFFFFFFE3
:10031000FFFFFFFFFFFFFFFF0FFFFFFFFFF8FFFFE4
:10032000FFFFC7FFFEFFFFFFFFFFFFFFFF0FFF18ED
:10033000FFFF38FCFF3FFFFFFFFFFFFFF7FFFFFF5F
:10034000FFFFFFFFFFFFFFFFFFFF3FFEFFFFFFF18C
:10035000FFFFFFFFCFFFFCFFFFFFFFFFFFFFFF3FA0
:100360007C9CFFFF0CFFFF1FFFFFFFFFFFFFF3FF62
:10037000FFFFFFFFFFFFFFFFFFFFFFFF7FFCFFFF10
:10038000FFE3FFFFFFFF8FFFFCFFFFFFFFFFFFFF0C
:10039000FFFF308EFF7FC0FFFF9FFFFFFFFFFFFFCC
:1003A000E3FFFFFFFFFFFFFFFFFFFFFFFFFFFFF088
:1003B000FFFFFFC7FFFFFFFF9FFFF9FFFFFFFFFFEB
:1003C000FFFFFFFF03CFFF3FF0FFFF8FFFFFFFFFA8
:1003D000FFFFE3FFFFFFFFFFFFFFFFFFFFFFFFFF49
:1003E000FFE3FFFFFF8FFFFFFFFF1FFFF1FFFFFF97
:1003F000FFFFFFFFFFFF8FC7FF3FFCFFFFCFFFFFA8
:10040000FFFFFFFFE3FFFFFFFFFFFFFFFFFFFFFF18
:10041000FFFFFFC7FFFFFF9FFFFFFFFF3FFFF3FF50
:10042000FFFFFFFFFFFFFFFFC7E7FF1FFFFFFFC744
:10043000FFFFFFFFFFFFEBFFFFFFFFFFFFFFFFFFE0
:10044000FFFFFFFFFF0FFFFFFF3FFFFFFFFF3FFE2D
:10045000E7FFFFFFFFFFFFFFFFFFE3E3FFCFFFFF2C
:10046000FFE7FFFFFFFFFFFFEBFFFFFFFFFFFFFFC8
:10047000FFFFFFFFFFFFFF3FFEFFFF3FFEFFFFFF0E
:100480007FFEC7FFFFFFFFFFFFFFFFFFF3E3FFFF5D
:10049000FFFFFFE3FFFFFFFFFFFFEBFFFFFFFFFF9C
:1004A000FFFFFFFFFFFFFFFFFF7FFCFFFF7FFCFF62
:1004B000FFFF7FFC8FFFFFFFFFFFFFFFFFFFE3F367
:1004C000FFFFFFFFFFF3FFFFFFFFFFFFEBFFFFFF5C
:1004D000FFFFFFFFFFFFFFFFFFFFFFFFF8FFFFFF33
:1004E000F8FFFFFFFFFC9FFFFFFFFFFFFFFFFFFF86
:1004F000C7F3FFFFFFFFFFF1FFFFFFFFFFFFEBFF72
:10050000FFFFFFFFFF7FFFFFFFFFFFFFFFFFE1FF99
:10051000FFFFF1FFFFFFFFF81FFFFFFFFFFFFFFFE0
:10052000FFFFCFF1FFFFFFFFFFF1FFFFFFFFFFFF27
:10053000EBFFFFFFFFFFFFFFFCFFFFFFFFFFFFFFE2
:10054000C7FFFFFFF3FFFFFFFFF93FFEFFFFFFFFC6
:10055000FFFFFFFF8FF1FFFFFFFFFFF8FFFFFFFF30
:10056000FFFFC9FFFFFFFFFFFFFFFCFFFFFFFFFFD4
:10057000FFFF8FFFFFFFE3FFFFFFFFF17FFEFFFFA6
:10058000FFFFFFFFFFFF9FF9FFFFFFFFFFF8FFFFE8
:10059000FFFFFFFFC9FFFFFFFFFFFFFFF8FFFFFFA8
:1005A000FFFFFFFF1FFFFFFFC7FFFFFFFFF17FFC04
:1005B000FFFFFFFFFFFFFFFF1FF9FFFFFFFF7FFCB4
:1005C000FFFFFFFFFFFFD9FFFFFFFFFFFFFFF9FF67
:1005D000FFFFFFFFFFFF3FFEFFFF8FFFFFFFFFF368
:1005E000FFF8FFFFFFFFFFFFFFFF3FF9FFFFFFFFE8
:1005F0007FFCFFFFFFFFFFFFD9FFFFFFFFFFFFFFB4
:10060000F1FFFFFFFFFFFFFF7FFCFFFF1FFFFFFF6B
:10061000FFE3FFF9FFFFFFFFFFFFFFFF3FF9FFFFD2
:10062000FFFF3FFEFFFFFFFFFFFFC1FFFFFFFFFFD9
:10063000FFFFF1FFFFFFFFFFFFFFFFF8FFFF3FFF9F
:10064000FFFFFFE7FFF1FFFFFFFFFFFFFFFF7FFA65
:10065000FFFFFFFF3FFEFFFFFFFFFFFFC9FFFFFFA1
:10066000FFFFFFFFE3FFFFFFFFFFFFFFFFF1FFFFC4
:100670003FFEFFFFFFC7FFE3FFFFFFFFFFFFFFFF9F
:100680007FF8FFFFFFFF1FFFFFFFFFFFFFFFC9FF17
:10069000FFFFFFFFFFFFEBFFFFFFFFFFFFFFFFE39A
:1006A000FFFF7FFCFFFFFFCFFFC7FFFFFFFFFFFF45
:1006B000FFFFFFF8FFFFFFFF0FFFFFFFFFFFFFFF41
:1006C000C9FFFFFFFFFFFFFFC3FFFFFFFFFFFFFFAC
:1006D000FFC7FFFFFFF8FFFFFF8FFFCFFFFFFFFF09
:1006E000FFFFFFFFFFF8FFFFFFFF8FFFFFFFFFFF91
:1006F000FFFF89FFFFFFFFFFFFFFD7FFFFFFFFFFA8
:10070000FFFFFF8FFFFFFFF9FFFFFF9FFF8FFFFF3F
:10071000FFFFFFFFFFFF7FF8FFFFFFFF8FFFFFFFE0
:10072000FFFFFFFF89FFFFFFFFFFFFFF97FFFFFFB7
:10073000FFFFFFFFFF1FFFFFFFF3FFFFFF9FFF1FF5
:10074000FFFFFFFFFFFFFFFF7FF8FFFFFFFFCFFF70
:10075000FFFFFFFFFFFF89FFFFFFFFFFFFFFA7FF77
:10076000FFFFFFFFFFFFFF3FFEFFFFE3FFFFFF3F36
:10077000FF3FFFFFFFFFFFFFFFFF7FFBFFFFFFFFCD
:10078000CFFFFFFFFFFFFFFF99FFFFFFFFFFFFFF0F
:100790002FFF7FFFFFFFFFFFFF7FFCFFFFC7FFFF74
:1007A000FF3FFF3FFEFFFFFFFFFFFFFF3FF9FFFFA0
:1007B000FFFFCFFFFFFFFFFFFFFF99FFFFFFFFFFDF
:1007C000FFFF6FFFFFFEFFFFFFFFFFFFF8FFFFCF01
:1007D000FFFFFF3FFF7FFCFFFFFFFFFFFFFF3FF932
:1007E000FFFFFFFFCFFFFFFFFFFFFFFF98FFFFFFB0
:1007F000FFFFFFFF4FFEFFFCFFFFFFFFFFFFF1FFCB
:10080000FF8FFFFFFF7FFFFFFCFFFFFFFFFFFFFFEB
:100810001FF9FFFFFFFFCFFFFFFFFFFFFFFF98FF65
:10082000FFFFFFFFFFFFDFFEFFFDFFFFFFFFFFFFFB
:10083000E3FFFF1FFFFFFF7FFFFFF8FFFFFFFFFF4B
:10084000FFFF1FF9FFFFFFFFCFFFFFFFFFFFFFFFCE
:1008500018FFFFFFFFFFFFFF9FFCFFF9FF1FFFFFD8
:10086000FFFFC7FFFF3FFEFFFFFFFFFFF1FFFFFF9F
:10087000FFFFFFFF9FF9FFFFFFFFC7FFFFFFFFFF26
:10088000FFFF18FFFFFFFFFFFFFF9FFDFFF3FF3F8D
:10089000FEFFFFFF8FFFFF7FFEFFFFFFFFFFF3FF66
:1008A000FFFFFFFFFFFF8FF1FFFFFFFFC7FFFFFF0E
:1008B000FFFFFFFF38FFFFFFFFFFFFFF3FF9FFF3E1
:1008C000FF3FFEFFFFFF1FFFFF7FFCFFFFFFFFFF5C
:1008D000E3FFFFFFFFFFFFFFCFF1FFFFFFFFC7FFBA
:1008E000FFFFFFFFFFFF38FFFFFFFFFFFFFF3FF9A5
:1008F000FFE7FF7FFCFFFFFF3FFEFFFFF8FFFFFF6B
:10090000FFFFC7FFFFFFFFFFFFFFC7F3FFFFFFFF73
:10091000C7FFFFFFFFFFFFFF38FFFFFFFFFFFFFFE6
:100920007FF2FFC7FFFFFCFFFFFF7FFCFFFFF9FF28
:10093000FFFFFFFFCFFFFFFFFFFFFFFFC7F3FFFF3B
:10094000FFFFC7FFFFFFFFFFFFFF38FEFFFFFFFFB7
:10095000FFFF7FF2FF8FFFFFF8FFFFFFFFFCFFFFAE
:10096000F8FFFFFFFFFF8FFFFFFFFFFFFFFFE7F332
:10097000FFFFFFFFE7FFFFFFFFFFFFFF38FEFFFF67
:10098000FFFFFFFF7FE6FF0FFFFFF1FFFFFFFFF815
:10099000FFFFF8FFFFFFFFFF9FFFFFFFFFFFFFFFCE
:1009A000E3F3FFFFFFFFE7FFFFFFFFFFFFFF38FE5F
:1009B000FFFFFFFFFFFFFFC4FF4FFFFFF3FFFFFF3E
:1009C000FFF1FFFFFCFFFFFFFFFF1FFFFFFFFFFF28
:1009D000FFFFF1F3FFFFFFFFE7FFFFFFFFFFFFFF59
:1009E00078FEFFFFFFFFFFFFFFCCFF1FFEFFE3FFCF
:1009F000FFFFFFE3FFFFFCFFFFFFFFFF3FFEFFFFE7
:100A0000FFFFFFFFF1E3FFFFFFFFE7FFFFFFFFFF38
:100A1000FFFF78FEFFFFFFFFFFFFFF88FF9FFCFF48
:100A2000E7FFFFFFFFC7FFFFFCFFFFFFFFFF7FFEAA
:100A3000FFFFFFFFFFFFF0E3FFFFFFFFE7FFFFFF09
:100A4000FFFFFFFF78FCFFFFFFFFFFFFFF99FFBFE6
:100A5000F9FFC7FFFFFFFF8FFF7FFCFFFFFFFFFFD7
:100A60007FFCFFFFFFFFFF7FFAE3FFFFFFFFE7FFD2
:100A7000FFFFFFFFFFFF78FCFFFFFFFFFFFFFF11FE
:100A8000FF3FF0FFCFFFFFFFFF9FFF7FFCFFFFFF58
:100A9000FFFFFFFCFFFFFFFFFF3FF9E7FFFFFFFF47
:100AA000E7FFFFFFFFFFFFFFF8FCFFFFFFFFFFFF78
:100AB000FF33FF7FF2FF8FFFFFFFFF1FFF7FFEFF70
:100AC000FFFFFFFFFFF8FFFFFFFFFF9FFCE7FFFFB8
:100AD000FFFFE7FFFFFFFFFFFFFFF8FCFFFFFFFF48
:100AE000FFFFFF23FE7FE4FF1FFFFFFFFF3FFE7FAF
:100AF000FEFFFFFFFFFFFFF9FFFFFFFFFF8FFCE798
:100B0000FFFFFFFFE7FFFFFFFFFFFFFFF8FCFFFF17
:100B1000FFFFFFFFFF67FEFFC4FF1FFFFFFFFF7F19
:100B2000FC7FFEFFFFFFFFFFFFF1FFFFFFFFFF471F
:100B3000FCE7FFFFFFFFE7FFFFFFFFFFFFFFF8F806
:100B4000FFFFFFFFFFFFFF67FCFF88FF3FFEFFFF88
:100B5000FFFFF83FFEFFFFFFFFFFFFF1FFFFFFFF7B
:100B6000FF63FEE7FFFFFFFFE3FFFFFFFFFFFFFF66
:100B7000F8F8FFFFFFFFFFFFFFC7F8FF19FF7FFE39
:100B8000FFFFFFFFF93FFEFFFFFFFFFFFFF3FFFF48
:100B9000FFFFFF31FEE7FFFFFFFFE3FFFFFFFFFF68
:100BA000FFFFF8F9FFFFFFFFFFFFFFCFF9FF31FE67
:100BB0007FFCFFFFFFFFF13FFEFFFFFFFFFFFFF3A3
:100BC000FFFFFFFFFF38FEE7FFFFFFFFE3FFFFFF31
:100BD000FFFFFFFFF8F1FFFFFFFFFFFFFF8FF1FFB8
:100BE00073FEFFFCFFFFFFFFE33FFFFFFFFFFFFF81
:100BF000FFE3FFFFFFFF7F3CFFE7FFFFFFFFE3FF98
:100C0000FFFFFFFFFFFFF8F1FFFFFFFFFFFFFF9F69
:100C1000F3FF63FCFFF8FFFFFFFFE73FFFFFFFFF6E
:100C2000FFFFFFF3FFFFFFFF3F1EFFE7FFFFFFFF99
:100C3000E3FFFFFFFFFFFFFFF8F3FFFFFFFFFFFFF3
:100C4000FF1FE3FFE7F8FFF9FFFFFFFFCF1FFFFFE5
:100C5000FFFFFFFFFFF3FFFFFFFF1F9FFFE7FFFF08
:100C6000FFFFE3FFFFFFFFFFFFFFF9F3FFFFFFFFC2
:100C7000FFFFFF3FC7FFC7F1FFF1FFFFFFFF8F1F20
:100C8000FFFFFFFFFFFFFFF3FFFFFFFF8F8FFFC798
:100C9000FFFFFFFFE3FFFFFFFFFFFFFFF9E3FFFFA2
:100CA000FFFFFFFFFF3FCEFFCFE3FFF3FFFFFFFF9D
:100CB0001F1FFFFFFFFFFFFFFFF3FFFFFFFFC38FBC
:100CC000FFC7FFFFFFFFE3FFFFFFFFFFFFFFF9E3AA
:100CD000FFFFFFFFFFFFFF7F8EFF8FC7FFE3FFFFD9
:100CE000FFFF3F9FFFFFFFFFFFFFFFF1FFFFFFFF42
:100CF000F1CFFFC7FFFFFFFFE3FFFFFFFFFFF1FFA4
:100D0000F9E7FFFFFFFFFFFFFF7F9CFF9F8FFFE7DC
:100D1000FFFFFFFF3F9EFFFFFFFFFFFFFFF9FFFF0A
:100D2000FFFFF8C7FFC7FFFFFFFFE3FFFFFFFFFF66
:100D3000F1FFF9C7FFFFFFFFFFFFFF7F1CFF1F9FB2
:100D4000FFC7FFFFFFFF7F9CFFFFFFFFFFFFFFF9D4
:100D5000FFFFFF7FFCE7FFC7FFFFFFFFE3FFFFFF92
:100D6000FFFFF3FFF9C7FFFDFFFFFFFFFFFF38FEA7
:100D70003F1EFFCFFFFFFFFFFF8CFFFFFFFFFFFFC7
:100D8000FFF8FFFFFF3FFEE3FFC7FFFFFFFFF3FF9B
:100D9000FFFFFFFFF3FFF9CFFFFCFFFFFFFFFFFFA8
:100DA00078FE7F7EFE8FFFFFFFFFFF88FFFFFFFFC4
:100DB000FFFFFFFCFFFFFF1FFFE3FFC7FFFFFFFF7A
:100DC000F3FFFFFFFFFFF3FFF18FFFF9FFFFFFFFCF
:100DD000FFFF79FC7F0CFC8FFFFFFFFFFFC1FFFFD0
:100DE000FFFFFFFF7FFCFFFFFF87FFF3FFC7FFFF52
:100DF000FFFFF3FFFFFFFFFFE3FFF18FFFF9FFFFAF
:100E0000FFFFFFFFF1F8FF80F89FFFFFFFFFFFD319
:100E1000FFFFFFFFFFFF7FFEFFFFFFC3FFF1FFC7E5
:100E2000FFFFFFFFF3FFFFFFFFFFE3FFF19FFFF374
:100E3000FFFFFFFFFFFFF3F9FFF8F11FFFFFFFFFC9
:100E4000FFD7FFFFFFFFFFFF3FFEFFFFFFF1FFF9AF
:100E5000FFC7FFFFFFFFF3FFFFFFFFFFE7FFF11FEC
:100E6000FFF3FFFFFFFFFFFFE3F1FFF9E33FFFFFAA
:100E7000FFFFFFC7FFFFFFFFFFFF3FFFFFFFFFF881
:100E8000FFF8FFC7FFFFFFFFF3FFFFFFFFFFE7FFD5
:100E9000F33FFFE3FFFFFFFFFFFFC7E3FFF1C73FA4
:100EA000FEFFFFFFFFCFFFFFFFFFFFFF1FFFFFFF63
:100EB0003FFCFFF8FFC7FFFFFFFFF3FFFFFFFFFF50
:100EC000C7FFF33FFEE7FFFFFFFFFFFFC7E9FFE3B9
:100ED0008F7FFEFFFFFFFFCFFFFFFFFFFFFF9FFFA3
:100EE000FFFF1FFFFFFCFFC7FFFFFFFFF3FFFFFF39
:100EF000FFFFC7FFF33FFEC7FFFFFFFFFFFF0FC06E
:100F0000FFE71F7FFCFFFFFFFFFFFFFFFFFFFFFF6C
:100F10008FFFFFFF8FFF7FFCFFC7FFFFFFFFF3FF88
:100F2000FFFFFFFFC7FFF37FFECFFFFFFFFFFFFFC6
:100F30000F8FFFC73FFEFCFFFFFFFFFFFFFFFFFF1D
:100F4000FFFFC7FFFFFFC3FF7FFEFFC7FFFFFFFFDE
:100F5000F3FFFFFFFFFFCFFFE37FFC8FFFFFFFFFEC
:100F6000FFFF1F1FFFCF7FFCFCFFFFFFFFFFFFFF07
:100F7000FFFFFFFFC7FFFFFFF1FF7FFEFFC7FFFF80
:100F8000FFFFF3FFFFFFFFFF8FFFE3FFFC8FFFFF7C
:100F9000FFFFFFFF3F3FFF8FFFF8F8FFFFFFFFFF5F
:100FA000FFFFFFFFFFFFE3FFFFFFF8FF3FFEFFC76D
:100FB000FFFFFFFFF3FFFFFFFFFF8FFFE3FFF81FC0
:100FC000FFFFFFFFFFFF3F3EFE1FFFF1F9FFFFFFA7
:100FD000FFFFFFFFFFFFFFFFF3FFFF3FFCFF3FFFB0
:100FE000FFC7FFFFFFFFF3FFFFFFFFFF8FFFE7FFDD
:100FF000F91FFFFFFFFFFFFF7F7EFC3FFFE3F1FFD5
:10100000FFFFFFFFFFFFFFFFFFFFF1FFFF1FFFFFDE
:101010001FFFFFC7FFFFFFFFE3FFFFFFFFFF0FFF04
:10102000E7FFF13FFEFFFFFFFFFF7FFCF83FFEC73A
:10103000F3FFFFFFFFFFFFFFFFFFFFFFF8FFFF874B
:10104000FFFF9FFFFFC7FFFFFFFFE3FFFFFFFFFF64
:101050001FFFE7FFF33FFEFFFFFFFFFFFFFCF17FF6
:10106000FC8FF3FFFFFFFFFFFFFFFFFFFFFFF8FF16
:10107000FFE3FFFF9FFFFFC7FFFFFFFFE3FFFFFF50
:10108000FFFF5FFFE7FFE33FFCFFFFFFFFFFFFF80E
:10109000F3FFFC1FE3FFFFFFFFFFFFFFFFFFFF7FEB
:1010A000FCFFFFF8FFFF8FFFFFC7FFFFFFFF63FF9E
:1010B000FFFFFFFF1FFEC7FFE77FFCFFFFFFFFFFF4
:1010C000FFF1E3FFF83FE6FFFFFFFFFFFFFFFFFF3A
:1010D000FF7FFEFF3FFCFFFFCFFFFFC7FFFFFFFFCC
:1010E00063FFFFFFFFFF9FFEC7FFC77FF8FFFFFF04
:1010F000FFFFFFF1C7FFF17FC4FFFFFFFFFFFFFF0F
:10110000FFFFFF3FFEFF1FFFFFFFC7FFFFC7FFFF00
:10111000FFFF63FFFFFFFFFF9FFCCFFFCFFFFAFF43
:10112000FFFFFFFFFFE38FFFF3FFC8FFFFFFFFFF9E
:10113000FFFFFFFFFF1FFFFF87FFFFFFC7FFFFE767
:10114000FFFFFFFF63FEFFFFFFFFBFFCCFFF8FFF2F
:10115000F0FFFFFFFFFFFFE71FFFE3FFC1FFFFFF00
:10116000FFFFFFFFFFFFFF9FFFFFE1FFFFFFE7FF25
:10117000FFE7FFFFFFFF63FEFFFFFFFFBFFDCFFFA6
:101180001FFFE4FFFFFFFFFFFFC73FFEC7FF83FF17
:10119000FFFFFFFFFFFFFFFFFF8FFFFFF8FFFFFFD6
:1011A000E3FFFFE7FFFFFFFF63FCFFFFFFFF3FF9E8
:1011B0008FFF3FFFE5FFFFFFFFFFFF8F7FFC8FFFEC
:1011C00087FFFFFFFFFFFFFFFFFFFFCFFF3FFCFF9A
:1011D000FFFFF3FFFFE7FFFFFFFF63FDFFFFFFFFE1
:1011E0003FF38FFF3FFEC9FFFFFFFFFFFF8FFFF8B9
:1011F0009FFF8FFFFFFFFFFFFFFFFFFFFFC7FF0FF7
:10120000FFFFFFFFF1FFFFE7FFFFFFFF63F9FFFFB6
:10121000FFFF7FF28FFF7FFCDBFFFFFFFFFFFF1F62
:10122000FFF11FFF1FFFFFFFFFFFFFFFFFFFFFE3B8
:10123000FFC3FFFFFFFFF1FFFFE7FFFFFFFF63F2C9
:10124000FFFFFFFF7FE29FFFFFFC93FFFFFFFFFF1A
:10125000FF3FFFC33FFE3FFFFFFFFFFFFFFFFFFF1B
:10126000FFF3FFF0FFFFFFFFF9FFFFE7FFFFFFFFC7
:1012700067F2FFFFFFFF7FE69FFFFFF827FFFFFFFB
:10128000FFFFFF3FFE8F7FFC3FFFFFFFFFFFFFFFE2
:10129000FFFFFFF13FFCFFFFFFFFF8FFFFE7FFFF4E
:1012A000FFFF67E4FFFFFFFF7FC49FFFFFF127FF02
:1012B000FFFFFFFFFF7FFC1FFFFC3FFEFFFFFFFF65
:1012C000FFFFFFFFFFF90FFEFFFFFFFFFCFFFFE740
:1012D000FFFFFFFFE7C4FFFFFFFF7F8C1FFFFFE360
:1012E00047FEFFFFFFFFFFFFFC3FFC097FFEFFFF04
:1012F000FFFFFFFFFFFFFFF883FFFFFFFF7FFCFF04
:10130000FFE7FFFFFFFFE7CCFFFFFFFFFF941FFF9B
:10131000FFE74FFCFFFFFFFFFFFFF8FFF0F17FFE4D
:10132000FFFFFFFFFFFFFFFF7FFCE1FFFFFFFF7FEE
:10133000FCFFFFE7FFFFFFFFE788FFFFFFFFFF2442
:101340003FFFFFC78FF8FFFFFFFFFF1FF803C0E35A
:101350007FFCFFFFFFFFFFFFFFFF7F7EF8FFFFFF28
:10136000FF7FFEFFFFE7FFFFFFFFE718FFFFFFFF25
:10137000FF343EFFFF8F9FF1FFFFFFFF078007E075
:101380000CC67FFCFFFFFFFFFFFFFFFF3F0EFEFFCE
:10139000FFFFFF3FFEFFFFE7FFFFFFFFC739FEFF35
:1013A000FFFFFF703CFEFF1F1FF3FFFF7F000000E9
:1013B000F0FF3C80FFFCFFFFFFFFFFFFFFFF3F87C9
:1013C000FFFFFFFFFF3FFFFFFFE7FFFFFFFF9771FB
:1013D000FCFFFFFFFFF838FEFF3F3EE3FFFF7FFE0D
:1013E00001F8FFFFF9CFFFF8FFFFFFFFFFFFFFFF4F
:1013F0001FE1FFFFFFFFFF1FFFFFFFE3FFFFFFFFF7
:1014000097F3F8FFFFFFFFF971FEFF7F3CC6FFFF78
:101410003F00E4FFFF9FF99FFFF8FFFFFFFFFFFF83
:10142000FFFF1FF8FFFFFFFFFF1FFFFFFFE3FFFFAF
:10143000FFFF27E3F1FFFFFFFFF963FEFFFF788E59
:10144000FFFF3FFFE7FFFFE3F33FFFF9FFFFFFFF72
:10145000FFFFFFFF0FFFFFFFFFFFFF9FFFFFFFE308
:10146000FFFFFFFF27E6E3FFFFFFFFF947FEFFFF58
:10147000711CFFFF1FFFE7FFFFF9F33FFFF9FFFFBD
:10148000FFFFFFFFFFFFCFFFFFFFFFFFFF8FFFFF0C
:10149000FFE3FFFFFFFF67C4C7FFFFFFFFF10FFC84
:1014A000FFFFE33CFEFF1FFFE7FFFFFEE77FFEF1CC
:1014B000FFFFFFFFFFFFFFFFF7FFFFFFFFFFFFCF74
:1014C000FFFFFFE3FFFFFFFFC78C8FFFFF0F00F061
:1014D0009FFDFFFFC778FCFF8FFFCFFF7FFFE77FF8
:1014E000FEF1FFFFFFFFFFFFFFFFFFFFFFFFFFFF1B
:1014F000FFC7FFFFFFE3FFFFFFFFC7991F3E00800D
:10150000FFFF3FFCFFFF8FF9F8FFCFFFCFFF7FFF0B
:10151000EFFFFCF3FFFFFFFFFFFFFFFFFFFFFFFFFA
:10152000FFFFFFC7FFFFFFF3FFFFFFFFC7117F00B4
:10153000FCFF070078FCFFFF1F31F0FFC7FFCFFF64
:101540007FFFCFFFFCF3FFFFFFFFFFFFFFFFFFFF6A
:10155000FFFFFFFFFFE7FFFFFFF3FFFFFFFFCF03EB
:10156000FE07000000EEFFF9FFFF3FF2E3FFE7FF99
:10157000CFFFFFFCDFFFFCE3FFFFFFFFFFFFFFFFED
:10158000FFFFFFFFFFFFFFE3FFFFFFF3FFFFFFFF93
:10159000CF1F0000F4FF1300FFFBFFFF7FE087FF7A
:1015A000E3FFCFFFFF03D8FFFCEBFFFFFFFFFFFFD1
:1015B000FFFFFFFFFFFFFFFFFFF3FFFFFFF3FFFF53
:1015C000FFFF0FC0FFF9FFFFFFFEF9FFFFFFFFE87E
:1015D0001FFFF3FF8FFFFFFF9FFFFFEBFFFFFFFFEB
:1015E000FFFFFFFFFFFFFFFFFFFFFFF3FFFFFFF323
:1015F000FFFFFFFFCFF1FFF9FFFFFFFDFFFFFFFF41
:10160000FFC33FFCF1FF9FFFFFFF9FFFFFEBFFFFCB
:10161000FFFFFFFFFFFFFFFFFFFFFFFFFFF1FFFFE8
:10162000FFF3FFFFFFFF8FFCFFF9FFFF3FFDFFFF11
:10163000FFFFFFC7FFF0F8FF9FFFFFFFBFFFFFC9DE
:10164000FFFFFFFFFFFFFFFFFFFFFFFFFFFFFFF9B0
:10165000FFFFFFF3FFFFFFFF0FFEFFF9FFFFC3F9DF
:10166000FFFFFFFFFF8FFFC3F8FF9FFFFFFFBFFFDD
:10167000FFC9FFFFFFFFFFFFFFFFFFFFFFFFFFFFB0
:10168000FFF8FFFFFFF3FFFFFFFF0FFFFFF9FFFF73
:10169000F8FBFFFFFFFFFF9FFF0FFCFFBFFFFFFFF8
:1016A000BFFFFFC9FFFFFFFFFFFFFFFFFFFFFFFFC0
:1016B000FFFFFFFCFFFFFFF3FFFFFFFF0FFFFFF93F
:1016C000FF7FFFFBFFFFFFFFFF3FFF7FFCFFBFFF31
:1016D000FFFFBFFFFFC9FFFFFFFFFFFFFFFFFFFF90
:1016E000FFFFFFFFFFFCFFFFFFF3FFFFFFFF8FFF89
:1016F000FFF3FFBFFFF3FFFFFFFFFFFFFEFFFFFF53
:101700003FFFFFFFBFFFFF89FFFFFFFFFFFFFFFF5F
:10171000FFFFFFFFFFFF7FFCFFFFFFF1FFFFFFFF6A
:101720008FFFFFF3FFBFFFF3FFFFFFFFFFFFFFFF91
:10173000FFFF7FFFFFFFBFFFFF89FFFFFFFFFFFFEF
:10174000FFFFFFFFFFFFFFFF7FFEFFFFFFF1FFFF38
:10175000FFFF9FFFFFF3FFBFFFF7FFFFFFFFFFFF4D
:10176000FFFFFFFF7FFFFFFF9FFFFF88FFFFFFFFE0
:10177000FFFFFFFFFFFFFFFFFFFF3FFEFFFFFFF148
:10178000FFFFFFFF9FFEFFE7FF7FFFE7FFFFFFFF7A
:10179000FFFFFFFFFFFFFFFDFFFF9FFFFF98FFFF22
:1017A000FFFFFFFFFFFFFFFFFFFFFFFF3FFEFFFF0A
:1017B000FFF1FFFFFFFF9FFCFFE7FFFFF8E7FFFFE1
:1017C000FFFFFFFFFFFFFFFFFFFDFFFF9FFFFF9CEE
:1017D000FFFFFFFFFFFFFFFFFFFFFFFFFFFF3FFFD9
:1017E000FFFFFFF9FFFFFFFF9FFDFFE7FFFF07E49C
:1017F000FFFFFFFFFFFFFFFFFFFFFFFDFFFFDFFF1B
:10180000FF9CFFFFFFFFFFFFFFFFFFFFFFFFFFFF4B
:101810001FFFFFFFFFF9FFFFFFFF1FF9FFCFFFFFD4
:10182000FFE7FFFFFFFFFFFFFFFFFFFFFFFBFFFFE4
:10183000CFFF7F1CFFFFFFFFFFFFFFFFFFFFFFFF4B
:10184000FFFF9FFFFFFFFFF9FFFFFFFF1FFBFFCF22
:10185000FFFFFFE7FFFFFFFFFFFFFFFFFFFFFFFBB4
:10186000FFFFEFFF7F1CFFFFFFFFFFFFFFFFFFFFFB
:10187000FFFFFFFF8FFFFFFFFFF9FFFFFFFF1FF3DA
:10188000FF9FFFFFFFE7FFFFFFFFFFFFFFFFFFFFE0
:10189000FFFBFFFFE7FF7F3EFFFFFFFFFFFFFFFFB5
:1018A000FFFFFFFFFFFF8FFFFFFFFFF9FFFFFFFFBE
:1018B0003FE7FF9FFFFFFFE7FFFFFFFFFFFFFFFF88
:1018C000FFFFFFF3FFFFF7FF7F3EFFFFFFFFFFFF7D
:1018D000FFFFFFFFFFFFFFFFCFFFFFFFFFF9CFFF7E
:1018E000FFFF3FEFFF3FFFFFFFE7FFFFFFFFFFFFB0
:1018F000FFFFFFFFFFF7FFFFFBFF3F3EFFFFFFFF85
:10190000FFFFFFFFFFFFFFFFFFFFC7FFFFFFFFF925
:10191000EFFFFFFF3FCFFF7FFFFFFFE7FFFFFFFF6F
:10192000FFFFFFFFFFFFFFE7FFFFFDFF3F3FFFFF61
:10193000FFFFFFFFFFFFFFFFFFFFFFFFE7FFFFFFCF
:10194000FFF9EFFFFFFF3F9FFF7FFEFFFFE7FFFF76
:10195000FFFFFFFFFFFFFFFFFFCFFFFFC7FF3F3F7F
:10196000FEFFFFFFFFFFFFFFFFFFFFFFFFFFE3FFA4
:10197000FFFFFFF9EFFFFFFF3F1EFFFFFCFFFFE749
:10198000FFFFFFFFFFFFFFFFFFFFFF0FFF07FCFF52
:101990001F3FFEFFFFFFFFFFFFFFFFFFFFFFFFFFF8
:1019A000E3FFFFFFFFF8EFFFFFFF3F3EFFFFFDFFFD
:1019B000FFE7FFFFFFFFFFFFFFFFFFFFFF1F00F03D
:1019C000FFFF9F3FFEFFFFFFFFFFFFFFFFFFFFFF48
:1019D000FFFFF3FFFFFFFFF8E7FFFFFF7F3EFEFF84
:1019E000FBFFFFE7FFFFFFFFFFFFFFFFFFFF7FC0E2
:1019F000FFFFFFFF9FBFFEFFFFFFFFFFFFFFFFFF98
:101A0000FFFFFFFFF1FFFFFFFFF8E7FFFFFF7F7E14
:101A1000FEFFFFFFFFE7FFFFFFFFFFFFFFFFFFFFEF
:101A2000FFFFFFFFFFFF8F9FFEFFFFFFFFFFFFFF97
:101A3000FFFFFFFFFFFFF9FFFFFFFFF8E7FFFFFFDB
:101A40007F7EFCFFFBFFFFF3FFFFFFFFFFFFFFFFBA
:101A5000FFFFFFFFFFFFFFFFCF1FFEFFFFFFFFFFA7
:101A6000FFFFFFFFFFFFFFFFF9FFFFFFFFF8E7FFAB
:101A7000FFFF7FFEFCFFF7FFFFF3FFFFFFFFFFFF0E
:101A8000FFFFFFFFFFFFFFFFFFFFC74FFEFFFFFF4F
:101A9000FFFFFFFFFFFFFFFFFFFFF8FFFFFFFFF864
:101AA000E3FFFFFF7FFCF8FFEFFFFFF3FFFFFFFF08
:101AB000FFFFFFFFFFFFFFFFFFFFFFFFE747FCFF09
:101AC000FFFFFFFFFFFFFFFFFFFFFFFFFCFFFFFF29
:101AD000FFFCE3FFFFFF7FFCF9FFEFFFFFFBFFFFD2
:101AE000FFFFFFFFFFFFFFFFFFFFFFFFFFFFE367BA
:101AF000FCFFFFFFFFFFFFFFFFFFFFFFFF7FFCFF7C
:101B0000FFFFFFFCEBFFFFFFFFFCF1FFDFFFFF9993
:101B1000FFFFFFFFFFFFFFFFFFFFFFFFFFFFFFFFD5
:101B2000E363FCFFFFFFFFFFFFFFFFFFFFFFFF7F00
:101B3000FEFFFFFFFFFCEBFFFFFFFFFCF3FFDFFFFC
:101B4000FFE5FFFFFFFFFFFFFFFFFFFFFFFFFFFFBF
:101B5000FFFFF371FCFFFFFFFFFFFFFFFFFFFFFF32
:101B6000FF7FFEFFFFFFFFFCEBFFFFFFFFFCE3FF3C
:101B7000BFFF3F80FFFFFFFFFFFFFFFFFFFFFFFFF4
:101B8000FFFFFFFFF178FCFFFFFFFFFFFFFFFFFFFD
:101B9000FFFFFF3FFEFFFFFFFFFCE9FFFFFFFFF836
:101BA000E7FF3F3F00FFFFFFFFFFFFFFFFFFFFFFDC
:101BB000FFFFFFFFFFFF78FCFCFFFFFFFFFFFFFFC2
:101BC000FFFFFFFFFF3FFF8FFFFFFFFCE9FFFFFF6E
:101BD000FFF8C7FFFF80FFFFFFFFFFFFFFFFFFFFD3
:101BE000FFFFFFFFFFFFFFFF38FEFCFFFFFFFFFFD0
:101BF000FFFFFFFFFFFFFF3FFFCFFFFFFFFCEDFFFA
:101C0000FFFFFFF98FFFFFFFFFFFFFFFFFFFFFFF5A
:101C1000FFFFFFFFFFFFFFFFFF7F3CFFFCFFFFFF1A
:101C2000FFFFFFFFFFFFFFFFFF1FFFCFFFFFFFFCD7
:101C3000EDFFFFFFFFF98FFFFFFFFFFFFFFFFFFF3C
:101C4000FFFFFFFFFFFFFFFFFFFFFF7F8EFFFCFF98
:101C5000FFFFFFFFFFFFFFFFFFFFFF9FFFCFFFFF24
:101C6000FFFCEDFFFFFFFFF91FFFFFFFFFFFFFFF7F
:101C7000FFFFFFFFFFFFFFFFFFFFFFFFFF3FC6FF6D
:101C8000FCFFFFFFFFFFFFFFFFFFFFFFFF9FFFC7FF
:101C9000FFFFFFFCECFFFFFFFFF13FFFFFFFFFFF38
:101CA000FFFFFFFFFFFFFFFFFFFFFFFFFFFFFF3F04
:101CB000E3FFFCFFFFFFFFFFFFFFFFFFFFFFFF8FC3
:101CC000FFE7FFFFFFFCECFFFFFFFFF13FFEFFFF21
:101CD000FFFFFFFFFFFFFFFFFFFFFFFFFFFFFFFF14
:101CE000FF9FF17FFCFFFFFFFFFFFFFFFFFFFFFFF5
:101CF000FF8FFFE7FFFFFFFCE4FFFFFFFFF37FFE27
:101D0000FFFFFFFFFFFFFFCFFFFFFFFFFFFFFFFF13
:101D1000FFFFFF8FF87FFCFFFFFFFFFFFFFFFFFFCD
:101D2000FFFFFFCFFFE7FFFFFFFCE4FFFFFFFFE345
:101D30007FFCFFFFFFFFFFFFFFEFFFFFFFFFFFFF46
:101D4000FFFFFFFFFF67FC7FFCFFFFFFFFFFFFFFC1
:101D5000FFFFFFFFFFCFFFE3FFFF7FFCE4FFFFFF7D
:101D6000FFE3FFFCFFFFFFFFFFFFFFE7FFFFFFFFBA
:101D7000FFFFFFFFFFFFFF07FF3FFCFFFFFFFFFF2E
:101D8000FFFFFFFFFFFFFFCFFFE3FFFF7FFCE4FF4D
:101D9000FFFFFFC3FFF8FFFFFFFFFFFFFFF3FFFFA2
:101DA000FFFFFFFFFFFFFFFFFF83FFBFFCFFFFFF02
:101DB000FFFFFFFFFFFFFFFFFFC7FFF3FFFF7F7C7A
:101DC000E4FFFFFFFF97FFF1FFFFFFFFFFFFFFF3C0
:101DD000FFFFFFFFFFFFFFFFFFFFFFE1FFBFFCFF74
:101DE000FFFFFFFFFFFFFFFFFFFFFFE7FFF3FFFF27
:101DF0007F7CE4FFFFFFFFB7FFF3FFFFFFFFFFFF65
:101E0000FFF9FFFFFFFFFFFFFFFFFFFFFFF8FF5F8F
:101E1000FCFFFFFFFFFFFFFFFFFFFFFFFFE7FFF1FB
:101E2000FFFF7F7CE4FFFFFFFF27FFE3FFFFFFFFD4
:101E3000FFFFFFFDFFFFFFFFFFFFFFFFFFFF7FFE35
:101E4000FF5FFCFFFFFFFFFFFFFFFFFFFFFFFFE75D
:101E5000FFF1FFFF7F7CE4FFFFFFFF27FFE7FFFFAE
:101E6000FFFFFFFFFFFCFFFFFFFFFFFFFFFFFFFF85
:101E70003FFFFF4FFCFFFFFFFFFFFFFFFFFFFFFFE5
:101E8000FFE3FFF1FFFF7F7CE6FFFFFFFF47FEC799
:101E9000FFFFFFFFFFFFFFF9FFFFFFFFFFFFFFFF58
:101EA000FFFFDFFFFF4FFCFFFFFFFFFFFFFFFFFF15
:101EB000FFFFFFF3FFF1FFFF7F7CE6FFFFFFFF4F18
:101EC000FC8FFFFFFFFFFFFFFFF3FFFFFFFFFFFFA1
:101ED000FFFFFFFFFFFFFF47FEFFFFFFFFFFFFFFCB
:101EE000FFFFFFFFFFF3FFF8FFFF7F7CE6FFFFFF31
:101EF000FFCFFC9FFFFFFFFFFFFFFFE7FFFFFFFF9D
:101F0000FFFFFFFFFFFFFFFFFF67FEFFFFFFFFFF7A
:101F1000FFFFFFFFFFFFFFF3FFF8FFFF7F7CC6FF20
:101F2000FFFFFF8FF81FFFFFFFFFFFFFFFFFFFFF18
:101F3000FFFFFFFFFFFFFFFFFFFFFF63FEFFFFFF4E
:101F4000FFFFFFFFFFFFFFFFFFF1FFFAFFFF7F7EB5
:101F5000C6FFFFFFFF8FF13FFEFFFFFFFFFFFFFF09
:101F6000FFFFFFFFFFFFFFFFFFFFFFFFFF73FEFF0E
:101F7000FFFFFFFFFFFFFFFFFFFFFFF1FFFAFFFF84
:101F80007F7EC6FFFFFFFF9FF37FFEFFFFFFFFFF88
:101F9000FFFFFFFFFFFFFFFFFFFFFFFFFFFFFF71DF
:101FA000FEFFFFFFFFFFFFFFFFFFFFFFFFF97FF8CF
:101FB000FFFF7F7EC6FFFFFFFF9FE37FFCFFFFFF6A
:101FC000FFFFFFFFFFFFFFFFFFFFFFFFFFFFFFFF21
:101FD000FF39FEFFFFFFFFFFFFFFFFFFFFFFFFF9DE
:101FE0007FF8FFFF7F7EC6FFFFFFFF1FC7FDF8FFE3
:101FF000FFFFFFFFFFFFFFFFFFFFFFFFFFFFFFFFF1
:10200000FFFFFF20FEFFFFFFFFFFFFFFFFFFFFFFC0
:10201000FFF97FFDFFFF7F7EC6FFFFFFFF3FCFF988
:10202000F9FFFFFFFFFFFFFFFFFFFFFFFFFFFFFFC6
:10203000FFFFFFFF7F3CFEFFFFFFFFFFFFFFFFFFF4
:10204000FFFFFFF87FFDFFFF7F7ECEFFFFFFFF3F1B
:102050008EF1F1FFFFFFFFFFFFFFFFFFFFFFFFFF1D
:10206000FFFFFFFFFFFF7F1EFEFFFFFFFFFFFFFFE2
:10207000FFFFFFFFFFFC3FFDFFFF7F7ECEFFFFFF67
:10208000FF3F18E3E3FFFFFFFFFFFFFFFFFFFFFF3F
:10209000FFFFFFFFFFFFFFFF3F5EFFFFFFFFFFFFB1
:1020A000FFFFFFFFFFFFFFFC3FFDFFFF7F7ECEFF37
:1020B000FFFFFF3F30CAE7FFFFFFFFFFFFFFFFFF0C
:1020C000FFFFFFFFFFFFFFFFFFFF1F5FFFFFFFFFA0
:1020D000FFFFFFFFFFFFFFFFFFFC3FFDFFFF7F7ED6
:1020E000CEFFFFFFFF7F42DACFFFFFFFFFFFFFFFC3
:1020F000FFFFFFFFFFFFFFFFFFFFFFFF8F4FFFFF10
:10210000FFFFFFFFFFFFFFFFFFFFFFFCBFFDFFFF24
:102110007F7CCEFFFFFFFF7F0E988FFFFFFFFFFF4B
:10212000FFFFFFFFFFFFFFFFFFFFFFFFFFFFC76F87
:10213000FFFFFFFFFFFFFFFFFFFFFFFF7FFCBFFC75
:10214000FFFF7F7C8EFFFFFFFF7F1C2F1FFFFFFF26
:10215000FFFFFFFFFFFFFFFFFFFFFFFFFFFFFFFF8F
:10216000E327FFFFFFFFFFFFFFFFFFFFFFFF7FFCF6
:102170009FFCFFFF7F7C8EFFFFFFFFFF7C2C3EFE5E
:10218000FFFFFFFFFFFFFFFFFFFFFFFFFFFFFFFF5F
:10219000FFFFF037FFFFFFFFFFFFFFFFFFFFFFFF26
:1021A0007FFE9FFEFFFF7F7C8EFFFFFFFFFFFC6136
:1021B0007CFCFFFFFFFFFFFFFFFFFFFFFFFFFFFFB5
:1021C000FFFFFF3FFC83FFFFFFFFFFFFFFFFFFFF5E
:1021D000FFFF7FFEDFFEFFFF7F7C9EFFFFFFFFFF15
:1021E000F8C7F8F0FFFFFFFFFFFFFFFFFFFFFFFF54
:1021F000FFFFFFFFFF1FFF93FFFFFFFFFFFFFFFF3B
:10220000FFFFFFFF7FFEDFFEFFFF7F7C9EFFFFFFE4
:10221000FFFFF887F1C3FFFFFFFFFFFFFFFFFFFF97
:10222000FFFFFFFFFFFFFF87FF91FFFFFFFFFFFFA4
:10223000FFFFFFFFFFFF3FFEDFFEFFFF7F7C9EFFF4
:10224000FFFFFFFFF947E30FFFFFFFFFFFFFFFFF68
:10225000FFFFFFFFFFFFFFFFFFE1FF89FFFFFFFF22
:10226000FFFFFFFFFFFFFFFF3FFECFFEFFFF7F7C73
:102270009CFFFFFFFFFFF1C7C73FFCFFFFFFFFFF12
:10228000FFFFFFFFFFFFFFFFFFFF3FF8FF88FFFF9C
:10229000FFFFFFFFFFFFFFFFFFFF3FFFCFFEFFFF3F
:1022A0007F7C1CFFFFFFFFFFF14F04F8F1FFFFFFF2
:1022B000FFFFFFFFFFFFFFFFFFFFFFFF0FFEFFCC52
:1022C000FFFFFFFFFFFFFFFFFFFFFFFF3FFFCFFE0F
:1022D000FFFF7F7C1CFFFFFFFFFF1320FF03C0FFFA
:1022E000FFFFFFFFFFFFFFFFFFFFFFFFFFFFC3FF3A
:1022F0007FCCFFFFFFFFFFFFFFFFFFFFFFFF3FFF61
:102300004FFEFFFFFF7C1CFFFFFFFFFFE3FFFFFF10
:102310000FFFFFFFFFFFFF03F0FFFFFFFFFFFF7F48
:10232000F0FF7FCEFFFFFFFFFFFFFFFFFFFFFFFF7D
:102330003FFF4FFEFFFFFFFC3CFFFFFFFFFFE3FF00
:10234000FFFF3FF8FFFFFFFF1FFC1FFEFFFFFFFF28
:10235000FF0FFEFF3FC6FFFFFFFFFFFFFFFFFFFF77
:10236000FFFF1FFF47FEFFFFFFFC3CFFFFFFFFFFDC
:10237000E7FFFFFFFFE0FFFFFFFFE7FFFFF9FFFFC2
:10238000FFFFFF83FFFF3FE7FFFFFFFFFFFFFFFFB1
:10239000FFFFFFFF1FFF67FEFFFFFFFC3CFFFFFF8C
:1023A000FFFFC7FFFFFFFF87FFFFFFFFF9FFFFF7FB
:1023B000FFFFFFFF7FF0FFFF1FE7FFFFFFFFFFFFB4
:1023C000FFFFFFFFFFFF9FFF27FEFFFFFFFC38FE21
:1023D000FFFFFFFFCFFFFFFFFF1FFCFFFFFFFDFF22
:1023E000FFE0FFFFFFFF0FFEFFFF9FE7FFFFFFFF85
:1023F000FFFFFFFFFFFFFFFF9FFF27FEFFFFFFFC29
:1024000038FEFFFFFFFFCFFFFFFFFFFFE0FFFFFFF3
:10241000FD0100FEFFFFFFFF81FFFFFFC3E3FFFFA2
:10242000FFFFFFFFFFFFFFFFFFFF9FFF27FFFFFFF4
:10243000FFFC78FEFFFFFFFF8FFFFFFFFFFF83FF23
:10244000FFFF01F8FFFFFFFFFF3FF0FFFF3FC4F377
:10245000FFFFFFFFFFFFFFFFFFFFFFFF9FFF23FFC8
:10246000FFFFFFF879FEFFFFFFFF9FFFFFFFFFFF6A
:102470001FFCFFFFFFFFFFFFFFFFFF07FEFFFFC384
:10248000E7F3FFFFFFFFFFFFFFFFFFFFFFFF8FFFF0
:1024900023FFFFFFFFF879FEFFFFFFFF1FFFFFFF96
:1024A000FFFFFFE0FFFFFFFFFFFFFFFFFFC0FFFF9A
:1024B0007FFCE3F1FFFFFFFFFFFFFFFFFFFFFFFFD9
:1024C0008FFF23FFFFFFFFF871FCFFFFFFFF1FFFE0
:1024D000FFFFFFFFFF07FEFFFFFFFFFFFFFF1FF0F4
:1024E000FFFF8FFFF1F1FFFFFFFFFFFFFFFFFFFF88
:1024F000FFFF8FFF33FFFFFFFFF971FCFFFFFFFFBF
:102500003FFFFFFFFFFFFF3FF0FFFFFFFFFFFFFF6A
:10251000C1FDFFFFF3FFF9F9FFFFFFFFFFFFFFFF23
:10252000FFFFFFFFCFFF33FFFFFFFFF9F3FCFFFFCC
:10253000FFFF3FFEFFFFFFFFFFFF01FFFFFFFFFF6A
:10254000FF3F78FEFF7FFCFFF8F9FFFFFFFFFFFF73
:10255000FFFFFFFFFFFFCFFF33FFFFFFFFF9F3FC9C
:10256000FFFFFFFF3FFEFFFFFFFFFFFF1FF0FFFF2B
:10257000FFFFFF073FFFFF9FFF7FFCF8FFFFFFFF0D
:10258000FFFFFFFFFFFFFFFFCFFF33FFFFFFFFF165
:10259000E3FCFFFFFFFF7FFEFFFFFFFFFFFFFF01E9
:1025A000FEFFFFFF7FE09FFFFFE7FF7FFEFCFFFFD7
:1025B000FFFFFFFFFFFFFFFFFFFFCFFF31FFFFFF29
:1025C000FFF1E3F8FFFFFFFF7FFCFFFFFFFFFFFFCF
:1025D000FF3F80FFFFFF0FFCCFFFFFF9FF3FFEFC37
:1025E000FFFFFFFFFFFFFFFFFFFFFFFFCFFF31FFF9
:1025F000FFFFFFF1E7F8FFFFFFFFFFFCFFFFFFFF1B
:10260000FFFFFFFF03E0FFFFE0FFE7FF7FFEFF1F8D
:102610007FFCFFFFFFFFFFFFFFFFFFFFFFFFCFFF7D
:1026200039FFFFFFFFF3E7F9FFFFFFFFFFF8FFFFB1
:10263000FFFFFFFFFFFFFF00E01FC2FFF3FF9FFF51
:10264000FF9F7FFEFFFFFFFFFFFFFFFFFFFFFFFF7B
:10265000C7FF39FFFFFFFFF3C7F9FFFFFFFFFFF8D9
:10266000FFFFFFFFFFFFFFFFFF7F000038FFFDFFC1
:10267000E7FFFF8F7FFEFFFFFFFFFFFFFFFFFFFF73
:10268000FFFFC7FF39FFFFFFFFE3CFF1FFFFFFFFB2
:10269000FFF9FFFFFFFFFFFFFFFFFFFFFFF0FB0062
:1026A000FEFFF9FFFFC73FFEFFFFFFFFFFFFFFFF3A
:1026B000FFFFFFFFC7FF39FFFFFFFFE3CFF1FFFF82
:1026C000FFFFFFF1FFFFFFFFFFFFFFFFFFFFFFFF28
:1026D000FDFAFEFFFCFFFFE33FFFFFFFFFFFFFFFF1
:1026E000FFFFFFFFFFFFC7FF39FFFFFFFFE78FF38C
:1026F000FFFFFFFFFFF3FFFFFFFFFFFFFFFFFFFFF6
:10270000FFFFFD7AFE3FFFFFFFF33FFFFFFFFFFFED
:10271000FFFFFFFFFFFFFFFFE7FF38FFFFFFFFE7C0
:102720009FF3FFFFFFFFFFE3FFFFFFFFFFFFFFFF41
:10273000FFFFFFFFFC7AFECFFFFFFFF11FFFFFFF50
:10274000FFFFFFFFFFFFFFFFFFFFE7FF38FFFFFF78
:10275000FFC71FE3FFFFFFFFFFE7FFFFFFFFFFFFD5
:10276000FFFFFFFFFFFFFE72FEE7FFFFFFF89FFF87
:10277000FFFFFFFFFFFFFFFFFFFFFFFFE7FF38FE49
:10278000FFFFFFCF3FE3FFFFFFFFFFC7FFFFFFFF9D
:10279000FFFFFFFFFFFFFFFFFEF2FEF9FFFF7FFCE1
:1027A0009FFFFFFFFFFFFFFFFFFFFFFFFFFFE7FFB1
:1027B0003CFEFFFFFFCF3FE7FFFFFFFFFFC7FFFF2D
:1027C000FFFFFFFFFFFFFFFFFFFFFEF6FEFCFFFF27
:1027D0007FFE8FFFFFFFFFFFFFFFFFFFFFFFFFFFFA
:1027E000E7FF3CFEFFFFFF8F3FC6FFFFFFFFFFCF6E
:1027F000FFFFFFFF070000F8FFFFFF7FFFF67EFFF0
:10280000FFFF3FFECFFFFFFFFFFFFFFFFFFFFFFFC9
:10281000FFFFE7FF3CFEFFFFFF9F7FC6FFFFFFFFBD
:10282000FF8FFFFFFF7FF0FFFF01E0FFFF7FFFF65D
:102830009EFFFFFF1FFFC7FFFFFFFFFFFFFFFFFF21
:10284000FFFFFFFFE3FF3CFEFFFFFF1F7FCCFFFF0B
:10285000FFFFFF9FFFFFFFFFFEFFFFFF1FF0FF7F58
:10286000FFF6CEFFFFFF8FFFC7FFFFFFFFFFFFFF5A
:10287000FFFFFFFFFFFFE37F3CFEFFFFFF1FFFCCDB
:10288000FFFFFFFFFF1FFFFFFFFFFEFFFFFFFF0731
:10289000FE7FFFF6F6FFFFFFC7FFE7FFFFFFFFFF2B
:1028A000FFFFFFFFFFFFFFFFE37F3CFEFFFFFF3F58
:1028B000FF88FFFFFFFFFF3FFFFFFFFFFDFFFFFF61
:1028C000FFFFE17FFEF7FAFFFFFFE7FFE3FFFFFFF8
:1028D000FFFFFFFFFFFFFFFFFFFFE37F7CFEFFFF28
:1028E000FF3FFE99FFFFFFFFFF3FFEFFFFFFF9FFE6
:1028F000FFFFFFFF1FFEFEE7FCFFFFFFE3FFF3FF0D
:10290000FFFFFFFFFFFFFFFFFFFFFFFFE37F7CFEF7
:10291000FFFFFF7FFE91FFFFFFFFFF7FFEFFFFFF37
:10292000FBFFFFFFFFFFFFF1FCEFFEFFFFFFF1FFEB
:10293000F1FFFFFFFFFFFFFFFFFFFFFFFFFFE37F51
:102940007EFEFFFFFF7FFC13FFFFFFFFFF7FFCFF0B
:10295000FFFFF7FFFFFFFFFFFF9FFDEFFEFFFFFF02
:10296000F8FFF1FFFFFFFFFFFFFFFFFFFFFFFFFF8C
:10297000E37F7EFEFFFFFFFFF823FFFFFFFFFFFF68
:10298000FCFFFFFFE7FFFFFFFFFFFFFFF8EFFEFF8A
:10299000FF7FFCFFF9FFFFFFFFFFFFFFFFFFFFFFD0
:1029A000FFFFF37F7EFEFFFFFFFFF927FFFFFFFF23
:1029B000FFFFF8FFFFFFEFFFFFFFFFFFFFFFFBEF52
:1029C000FEFFFF3FFEFFF8FFFFFFFFFFFFFFFFFFE0
:1029D000FFFFFFFFF37F7EFEFFFFFFFFF107FEFF1C
:1029E000FFFFFFFFF9FFFFFFDFFFFFFFFFFFFFFF1D
:1029F000F0CFFEFFFF1FFFFFFCFFFFFFFFFFFFFF0A
:102A0000FFFFFFFFFFFFF37F7EFCFFFFFFFFE3CF32
:102A1000FEFFFFFFFFFFF1FFFFFFBFFFFFFFFFFF15
:102A2000FF3FF7DFFEFFFF9FFF7FFCFFFFFFFFFF82
:102A3000FFFFFFFFFFFFFFFFF37F7EFCFFFFFFFFB6
:102A4000E7CFFEFFFFFFFFFFE3FFFFFF7FFFFFFF7B
:102A5000FFFFFF8FEFDFFEFFFF8FFF7FFEFFFFFF18
:102A6000FFFFFFFFFFFFFFFFFFFFF37F7EFCFFFF86
:102A7000FFFFC79FFCFFFFFFFFFFC3FFFFFF7FFEBE
:102A8000FFFFFFFFFFE7EFDF0280FFC7FF3FFEFF13
:102A9000FFFFFFFFFFFFFFFFFFFFFFFFF33FFEFC16
:102AA000FFFFFFFF8F3FFDFFFFFFFFFF87FFFFFFE0
:102AB000FFFCFFFFFFFFFFF9DFFFFE3F00E0FF3FEE
:102AC000FFFFFFFFFFFFFFFFFFFFFFFFFFFFF33FE2
:102AD000FEFCFFFFFFFF1F3FF9FFFFFFFFFF67FF48
:102AE000FFFFFFF9FFFFFFFF7FFEDFFFFEFFFFF1AC
:102AF000FF1FFFFFFFFFFFFFFFFFFFFFFFFFFFFFC6
:102B0000F33FFEFCFFFFFFFF3F7EF8FFFFFFFFFFED
:102B1000CFFEFFFFFFF3FFFFFFFF9FFFBFFFFEFFA3
:102B2000FFF8FF9FFFFFFFFFFFFFFFFFFFFFFFFF1C
:102B3000FFFFF33FFEFCFFFFFFFF7FFEF8FFFFFFFD
:102B4000FFFF8FF9FFFFFFE7FFFFFFFFE7FF3FFFFB
:102B5000FEFF7FFCFF8FFFFFFFFFFFFFFFFFFFFF79
:102B6000FFFFFFFFF33FFFF8FFFFFFFFFFF8F0FF5E
:102B7000FFFFFFFF9FF3FFFFFFCFFFFFFFFFF9FF07
:102B80007FFFFEFF3FFEFF8FFFFFFFFFFFFFFFFF07
:102B9000FFFFFFFFFFFFF33FFFF8FFFFFFFFFFF126
:102BA000F1FFFFFFFFFF1FE7FFFFFF9FFFFFFF7F1B
:102BB000FEFF7FFEFEFF3FFFFFC7FFFFFFFFFFFFA0
:102BC000FFFFFFFFFFFFFFFFF33FFFF8FFFFFFFFE8
:102BD000FFE3E3FFFFFFFFFF3F9FFFFFFF7FFFFFDD
:102BE000FF3FFFFFFFFEFEFF9FFFFFC7FFFFFFFF4F
:102BF000FFFFFFFFFFFFFFFFFFFFF33FFFF9FFFFB7
:102C0000FFFFFFC7E3FFFFFFFFFF3F3EFFFFFFFFA9
:102C1000FEFFFFCFFFFFFF1CF8FF8FFFFFE7FFFF67
:102C2000FFFFFFFFFFFFFFFFFFFFFFFFF33FFFF986
:102C3000FFFFFFFFFF8FC7FFFFFFFFFF7F7EFEFF4E
:102C4000FFFFF9FFFFF3FFFF7FE0E3FFC7FFFFE3B5
:102C5000FFFFFFFFFFFFFFFFFFFFFFFFFFFFF33F50
:102C6000FFF1FFFFFFFFFF1F87FFFFFFFFFF7FFC5D
:102C7000F9FFFFFFF3FFFFFCFFFF3FFF8FFFE3FFC5
:102C8000FFF1FFFFFFFFFFFFFFFFFFFFFFFFFFFF62
:102C9000F33FFFF1FFFFFFFFFF3F2EFFFFFFFFFFAF
:102CA000FFFCF3FFFFFFE7FF3FFFFFFF5FFF7FFE3C
:102CB000F1FFFFF1FFFFFFFFFFFFFFFFFFFFFFFF40
:102CC000FFFFF33FFFF1FFFFFFFFFF7F28FFFFFF45
:102CD000FFFFFFF8CFFFFFFFCFFFCFFFFFFF67FF33
:102CE000CFF1F9FFFFF8FFFFFFFFFFFFFFFFFFFF3F
:102CF000FFFFFFFFF33FFFF3FFFFFFFFFFFF71FE4B
:102D0000FFFFFFFFFFF9DFFFFFFFBFFFF3FFFFFF45
:102D100033FFDFC7F8FFFFFCFFFFFFFFFFFFFFFFF1
:102D2000FFFFFFFFFFFFF31FFFF3FFFFFFFFFFFFAB
:102D3000E3FCFFFFFFFFFFF1DFFFFFFF9FFFFCFF53
:102D4000FFFF39FF9F3FFCFF7FFCFFFFFFFFFFFFFF
:102D5000FFFFFFFFFFFFFFFFF31FFFE3FFFFFFFF8B
:102D6000FFFFCFF9FFFFFFFFFFE39FFFFFFFDF3F05
:102D7000FFFFFFFFBEFFBF3FFEFF3FFEFFFFFFFF66
:102D8000FFFFFFFFFFFFFFFFFFFFF31FFFE3FFFF5B
:102D9000FFFFFFFF1FF1FFFFFFFFFFE7BFFFFFFF89
:102DA000DFCFFFFFFF3FBFFF3F1FFFFF1FFEFFFF04
:102DB000FFFFFFFFFFFFFFFFFFFFFFFFF31FFFE727
:102DC000FFFFFFFFFFFF3FE4FFFFFFFFFFC7BFFF66
:102DD000FFFF9FF1FFFFFF9F9FFF3F9FFFFF0FFF41
:102DE000FFFFFFFFFFFFFFFFFFFFFFFFFFFFF31FDF
:102DF000FFE7FFFFFFFFFFFF3FCFFFFFFFFFFFCF1B
:102E0000BFFFFFFF3FFCFFFFFFEF9FFF7F8EFFFF36
:102E10000FFFFFFFFFFFFFFFFFFFFFFFFFFFFFFFB2
:102E2000F31FFFC7FFFFFFFFFFFF7F81FFFFFFFFD4
:102E3000FF8FBFFFFFFFBFFFFFFFFFF3DFFF7FC677
:102E4000FFFF87FFFFFFFFFFFFFFFFFFFFFFFFFF0A
:102E5000FFFFF31FFFC7FFFFFFFFFFFF7F04FFFF21
:102E6000FFFFFF9F3FFFFFFFFFFFFFFFFFF9CFD7F0
:102E7000FFE2FFFF93FFFFFFFFFFFFFFFFFFFFFFEB
:102E8000FFFFFFFFF31FFFCFFFFFFFFFFFFF7F18D5
:102E9000FEFFFFFFFF1F3FFFFFFFFFFFFFFF7FFE64
:102EA000CFD7FFF1FFFFC9FFFFFFFFFFFFFFFFFFCE
:102EB000FFFFFFFFFFFFF31FFFCFFFFFFFFFFFFF3E
:102EC000FF78FCFFFFFFFF3F7EFFFFFFFFFFFFFFDD
:102ED0003FFFEFD3FFF9FFFFE4FFFFFFFFFFFFFF1F
:102EE000FFFFFFFFFFFFFFFFF31FFF8FFFFFFFFF4E
:102EF000FFFFFFF0F9FFFFFFFF7F7EFFFFFFFFFFF8
:102F0000FFFFDFFFE7D3FFF8FF7FE6FFFFFFFFFFD5
:102F1000FFFFFFFFFFFFFFFFFFFFF31FFF9FFFFF0D
:102F2000FFFFFFFFFFF1F3FFFFFFFF7F7CFFFFFFCE
:102F3000FFFFFFFFE7FFE7DB7FFCFF3FF3FFFFFF44
:102F4000FFFFFFFFFFFFFFFF11241FBECFEFD8E001
:102F5000DEBFCDBF21E0A0E0B1E001C01D92A733EC
:102F6000B207E1F70E94F4180C9414190C940000B5
:102F7000E4E6F0E080818B7F80838CE284B980E797
:102F80008CBD08958EBD0DB407FEFDCF08950F933F
:102F90001F93CF93DF93062F662349F0C82FD92FB5
:102FA00010E089910E94C2171F5F1013FACFDF91C2
:102FB000CF911F910F910895882311F0599A089588
:102FC000599808950E94B8178FEF8AB91BB881E00D
:102FD0000E94DC170895589A80913601846080938E
:102FE00000011092010162E080E091E00E94C717A9
:102FF0008FEC97E00197F1F700C000005898089512
:103000007F928F929F92AF92BF92CF92DF92EF9278
:10301000FF920F931F93CF93DF9308E610E0712C7C
:103020000F2EF0E0EF2EF1E0FF2EF02D0F2EF1E04D
:103030008F2EF1E09F2EF02D0F2EF2E0AF2EF1E05B
:10304000BF2EF02DC4E3D1E00F2EF5E3CF2EF1E03B
:10305000DF2EF02D809136018160F701808373941B
:10306000F4017082D501F80184918D933196AC17EB
:10307000BD07D1F71882F6011082589A66E3C7019E
:103080000E94C71758980E5C1F4FF0EF7F12E2CFD7
:10309000DF91CF911F910F91FF90EF90DF90CF9034
:1030A000BF90AF909F908F907F9008952F923F9206
:1030B0004F925F926F927F928F929F92AF92BF9248
:1030C000CF92DF92EF92FF920F931F93CF93DF93F4
:1030D0004C01EB0130E000E011E00F2EF1E0AF2EEB
:1030E000F1E0BF2EF02D0F2EF2E0CF2EF1E0DF2E1B
:1030F000F02D212C55245394422C0F2EF4E3EF2E67
:10310000F1E0FF2EF02D0F2EF5E36F2EF1E07F2E74
:10311000F02D809136018160F8018083332433944F
:10312000330EF5013082F60180E090E0383740F44C
:10313000252D8815990508F0242D2195208307C099
:10314000252D8C179D0708F0242D219520830896A6
:103150003196803921E0920749F7F7012082F30187
:103160002082589A66E3C8010E94C7175898F0EF6A
:103170003F1611F0332DCDCFDF91CF911F910F91DD
:10318000FF90EF90DF90CF90BF90AF909F908F9087
:103190007F906F905F904F903F902F900895ECE755
:1031A000F0E0808180648083EAE7F0E08081876CD2
:1031B0008083EBE7F0E0808180830895ECE7F0E026
:1031C0009081907F908390818F70982B9083EAE715
:1031D000F0E0808180648083808186FDFDCF8091D6
:1031E00078009091790008950E94CF180E94E2170C
:1031F0000E94EB170E94001881E00E94DC172FEF5D
:1032000089E698E1215080409040E1F700C000003D
:1032100080E00E94DE18EC0181E00E94DE18BC0113
:0C322000CE010E945618F4CFF894FFCFA6
:00000001FF
