S01700004763634170706C69636174696F6E312E737265635B
S11300000C9434000C9451000C9451000C94510045
S11300100C9451000C9451000C9451000C94510018
S11300200C9451000C9451000C9451000C94510008
S11300300C9451000C9451000C9451000C945100F8
S11300400C94D6000C9451000C9451000C94510063
S11300500C9451000C9451000C9451000C945100D8
S11300600C9451000C94510011241FBECFEFD8E022
S1130070DEBFCDBF11E0A0E0B1E0E2E5F3E002C0F5
S113008005900D92A031B107D9F721E0A0E1B1E0CC
S113009001C01D92A631B207E1F70E9467010C94DA
S11300A0A7010C940000AC018436910508F588B1D1
S11300B08C7F88B9409A9A01ADECBCEC0E949801FF
S11300C0969587959695879596958795809315012E
S11300D09C01220F331F880F991F880F991F880FC7
S11300E0991F820F931F481B590B409314010895C5
S11300F088B18C7F88B9419A9A01A9E8B8E80E942E
S11301009801FC01F695E795F295E295EF70EF27DB
S1130110FF70EF279F01ADECBCEC0E949801AC018D
S1130120569547955695479556954795409315018D
S1130130CA01880F991F440F551F440F551F440FC0
S1130140551F480F591FE41BF50BE0931401089544
S113015096B192959F709370923021F0933019F478
S113016092E001C093E080911001292F281B2F3FBA
S113017051F01CF42D3F49F004C0213031F02330FC
S113018011F080E003C082E001C081E0909310018F
S1130190089583E084B99FE097B99FE398B99FEFEE
S11301A09AB985BD81E080936E0008951F920F92E5
S11301B00FB60F9211242F933F934F935F936F9336
S11301C07F938F939F93AF93BF93EF93FF930E947B
S11301D0A800813019F08230C1F02FC08091110144
S11301E0909112018436910518F42AE030E002C09F
S11301F02CE330E08091110190911201820F931F42
S1130200909312018093110118C080911101909173
S1130210120120911101309112012B30310528F483
S1130220209111013091120102C02AE030E0821BBA
S1130230930B90931201809311018091110190917D
S113024012010E9453008091130191E0980F909342
S113025013018770813061F028F0843019F0853003
S113026091F01BC08FEF8BB988B18C6088B915C031
S1130270E0911501EF70F0E0E050FF4F8081809530
S11302808BB943980AC0E0911401EF70F0E0E0509C
S1130290FF4F808180958BB9429880911101909194
S11302A01201892B11F0299A01C02998FF91EF912D
S11302B0BF91AF919F918F917F916F915F914F917A
S11302C03F912F910F900FBE0F901F9018952FEF15
S11302D084E39CE0215080409040E1F700C000009E
S11302E084E497E090931201809311010E94C90065
S11302F0789438EE23E08091110190911201892BBA
S1130300A1F0809111019091120101979093120133
S1130310809311010AC0EFECF7E03197F1F700C0C8
S1130320000001970097B9F7E6CF832F922FF3CF00
S1130330A29FB001B39FC001A39F700D811D112422
S1130340911DB29F700D811D1124911D0895F89483
S1050350FFCFD9
S1130352FC60DAF266B6BEE4FEF6EE3E1A7A9E8ED1
S9030000FC
